{
  "contractName": "Certificates",
  "abi": [
    {
      "anonymous": false,
      "inputs": [
        {
          "indexed": false,
          "internalType": "uint256",
          "name": "id",
          "type": "uint256"
        },
        {
          "indexed": false,
          "internalType": "string",
          "name": "name",
          "type": "string"
        },
        {
          "indexed": false,
          "internalType": "string",
          "name": "course",
          "type": "string"
        },
        {
          "indexed": false,
          "internalType": "string",
          "name": "issue_date",
          "type": "string"
        }
      ],
      "name": "Certificate_Registered",
      "type": "event"
    },
    {
      "anonymous": false,
      "inputs": [
        {
          "indexed": false,
          "internalType": "uint256",
          "name": "id",
          "type": "uint256"
        }
      ],
      "name": "Certificate_Revoked",
      "type": "event"
    },
    {
      "inputs": [
        {
          "internalType": "uint256",
          "name": "",
          "type": "uint256"
        }
      ],
      "name": "certificate_ids",
      "outputs": [
        {
          "internalType": "uint256",
          "name": "",
          "type": "uint256"
        }
      ],
      "stateMutability": "view",
      "type": "function",
      "constant": true
    },
    {
      "inputs": [
        {
          "internalType": "uint256",
          "name": "",
          "type": "uint256"
        }
      ],
      "name": "certificates",
      "outputs": [
        {
          "internalType": "uint256",
          "name": "id",
          "type": "uint256"
        },
        {
          "internalType": "string",
          "name": "name",
          "type": "string"
        },
        {
          "internalType": "string",
          "name": "course",
          "type": "string"
        },
        {
          "internalType": "string",
          "name": "issue_date",
          "type": "string"
        },
        {
          "internalType": "bool",
          "name": "valid",
          "type": "bool"
        }
      ],
      "stateMutability": "view",
      "type": "function",
      "constant": true
    },
    {
      "inputs": [
        {
          "internalType": "uint256",
          "name": "_id",
          "type": "uint256"
        },
        {
          "internalType": "string",
          "name": "_name",
          "type": "string"
        },
        {
          "internalType": "string",
          "name": "_course",
          "type": "string"
        },
        {
          "internalType": "string",
          "name": "_issue_date",
          "type": "string"
        }
      ],
      "name": "Register_Certificate",
      "outputs": [],
      "stateMutability": "nonpayable",
      "type": "function"
    },
    {
      "inputs": [
        {
          "internalType": "uint256",
          "name": "_id",
          "type": "uint256"
        }
      ],
      "name": "Revoke_Certificate",
      "outputs": [],
      "stateMutability": "nonpayable",
      "type": "function"
    },
    {
      "inputs": [
        {
          "internalType": "uint256",
          "name": "_id",
          "type": "uint256"
        }
      ],
      "name": "get_Certificate",
      "outputs": [
        {
          "internalType": "uint256",
          "name": "",
          "type": "uint256"
        },
        {
          "internalType": "string",
          "name": "",
          "type": "string"
        },
        {
          "internalType": "string",
          "name": "",
          "type": "string"
        },
        {
          "internalType": "string",
          "name": "",
          "type": "string"
        },
        {
          "internalType": "bool",
          "name": "",
          "type": "bool"
        }
      ],
      "stateMutability": "view",
      "type": "function",
      "constant": true
    },
    {
      "inputs": [],
      "name": "getAll_CertificateIds",
      "outputs": [
        {
          "internalType": "uint256[]",
          "name": "",
          "type": "uint256[]"
        }
      ],
      "stateMutability": "view",
      "type": "function",
      "constant": true
    }
  ],
  "bytecode": "0x608060405234801561000f575f80fd5b5061124c8061001d5f395ff3fe608060405234801561000f575f80fd5b5060043610610060575f3560e01c80632186ca351461006457806332e6efbc14610080578063663b3e22146100b057806367d1a0c0146100e457806387d4144d14610102578063ade9008a14610136575b5f80fd5b61007e600480360381019061007991906108a5565b610152565b005b61009a600480360381019061009591906108a5565b610250565b6040516100a791906108df565b60405180910390f35b6100ca60048036038101906100c591906108a5565b610270565b6040516100db95949392919061099c565b60405180910390f35b6100ec61043f565b6040516100f99190610ab9565b60405180910390f35b61011c600480360381019061011791906108a5565b610495565b60405161012d95949392919061099c565b60405180910390f35b610150600480360381019061014b9190610c05565b6106fe565b005b5f805f8381526020019081526020015f2090505f815f0154036101aa576040517f08c379a00000000000000000000000000000000000000000000000000000000081526004016101a190610d2d565b60405180910390fd5b806004015f9054906101000a900460ff166101fa576040517f08c379a00000000000000000000000000000000000000000000000000000000081526004016101f190610dbb565b60405180910390fd5b5f816004015f6101000a81548160ff0219169083151502179055507f167c231a8b0075407c186bfb0a65a8f87ac33b9aa400d443d5380d5cdeabfb838260405161024491906108df565b60405180910390a15050565b6001818154811061025f575f80fd5b905f5260205f20015f915090505481565b5f602052805f5260405f205f91509050805f01549080600101805461029490610e06565b80601f01602080910402602001604051908101604052809291908181526020018280546102c090610e06565b801561030b5780601f106102e25761010080835404028352916020019161030b565b820191905f5260205f20905b8154815290600101906020018083116102ee57829003601f168201915b50505050509080600201805461032090610e06565b80601f016020809104026020016040519081016040528092919081815260200182805461034c90610e06565b80156103975780601f1061036e57610100808354040283529160200191610397565b820191905f5260205f20905b81548152906001019060200180831161037a57829003601f168201915b5050505050908060030180546103ac90610e06565b80601f01602080910402602001604051908101604052809291908181526020018280546103d890610e06565b80156104235780601f106103fa57610100808354040283529160200191610423565b820191905f5260205f20905b81548152906001019060200180831161040657829003601f168201915b505050505090806004015f9054906101000a900460ff16905085565b6060600180548060200260200160405190810160405280929190818152602001828054801561048b57602002820191905f5260205f20905b815481526020019060010190808311610477575b5050505050905090565b5f60608060605f805f808881526020019081526020015f206040518060a00160405290815f82015481526020016001820180546104d190610e06565b80601f01602080910402602001604051908101604052809291908181526020018280546104fd90610e06565b80156105485780601f1061051f57610100808354040283529160200191610548565b820191905f5260205f20905b81548152906001019060200180831161052b57829003601f168201915b5050505050815260200160028201805461056190610e06565b80601f016020809104026020016040519081016040528092919081815260200182805461058d90610e06565b80156105d85780601f106105af576101008083540402835291602001916105d8565b820191905f5260205f20905b8154815290600101906020018083116105bb57829003601f168201915b505050505081526020016003820180546105f190610e06565b80601f016020809104026020016040519081016040528092919081815260200182805461061d90610e06565b80156106685780601f1061063f57610100808354040283529160200191610668565b820191905f5260205f20905b81548152906001019060200180831161064b57829003601f168201915b50505050508152602001600482015f9054906101000a900460ff16151515158152505090505f815f0151036106d2576040517f08c379a00000000000000000000000000000000000000000000000000000000081526004016106c990610ea6565b60405180910390fd5b805f01518160200151826040015183606001518460800151955095509550955095505091939590929450565b5f805f8681526020019081526020015f205f015414610752576040517f08c379a000000000000000000000000000000000000000000000000000000000815260040161074990610f34565b60405180910390fd5b6040518060a00160405280858152602001848152602001838152602001828152602001600115158152505f808681526020019081526020015f205f820151815f015560208201518160010190816107a991906110ef565b5060408201518160020190816107bf91906110ef565b5060608201518160030190816107d591906110ef565b506080820151816004015f6101000a81548160ff021916908315150217905550905050600184908060018154018082558091505060019003905f5260205f20015f90919091909150557f522b25db84b7a37c35158db69e31aad4c9b685583e81baf20d5b75b82f0a9d6c8484848460405161085394939291906111be565b60405180910390a150505050565b5f604051905090565b5f80fd5b5f80fd5b5f819050919050565b61088481610872565b811461088e575f80fd5b50565b5f8135905061089f8161087b565b92915050565b5f602082840312156108ba576108b961086a565b5b5f6108c784828501610891565b91505092915050565b6108d981610872565b82525050565b5f6020820190506108f25f8301846108d0565b92915050565b5f81519050919050565b5f82825260208201905092915050565b5f5b8381101561092f578082015181840152602081019050610914565b5f8484015250505050565b5f601f19601f8301169050919050565b5f610954826108f8565b61095e8185610902565b935061096e818560208601610912565b6109778161093a565b840191505092915050565b5f8115159050919050565b61099681610982565b82525050565b5f60a0820190506109af5f8301886108d0565b81810360208301526109c1818761094a565b905081810360408301526109d5818661094a565b905081810360608301526109e9818561094a565b90506109f8608083018461098d565b9695505050505050565b5f81519050919050565b5f82825260208201905092915050565b5f819050602082019050919050565b610a3481610872565b82525050565b5f610a458383610a2b565b60208301905092915050565b5f602082019050919050565b5f610a6782610a02565b610a718185610a0c565b9350610a7c83610a1c565b805f5b83811015610aac578151610a938882610a3a565b9750610a9e83610a51565b925050600181019050610a7f565b5085935050505092915050565b5f6020820190508181035f830152610ad18184610a5d565b905092915050565b5f80fd5b5f80fd5b7f4e487b71000000000000000000000000000000000000000000000000000000005f52604160045260245ffd5b610b178261093a565b810181811067ffffffffffffffff82111715610b3657610b35610ae1565b5b80604052505050565b5f610b48610861565b9050610b548282610b0e565b919050565b5f67ffffffffffffffff821115610b7357610b72610ae1565b5b610b7c8261093a565b9050602081019050919050565b828183375f83830152505050565b5f610ba9610ba484610b59565b610b3f565b905082815260208101848484011115610bc557610bc4610add565b5b610bd0848285610b89565b509392505050565b5f82601f830112610bec57610beb610ad9565b5b8135610bfc848260208601610b97565b91505092915050565b5f805f8060808587031215610c1d57610c1c61086a565b5b5f610c2a87828801610891565b945050602085013567ffffffffffffffff811115610c4b57610c4a61086e565b5b610c5787828801610bd8565b935050604085013567ffffffffffffffff811115610c7857610c7761086e565b5b610c8487828801610bd8565b925050606085013567ffffffffffffffff811115610ca557610ca461086e565b5b610cb187828801610bd8565b91505092959194509250565b7f4552524f52212120436572746966696361746520646f65736e277420657869735f8201527f7421000000000000000000000000000000000000000000000000000000000000602082015250565b5f610d17602283610902565b9150610d2282610cbd565b604082019050919050565b5f6020820190508181035f830152610d4481610d0b565b9050919050565b7f4552524f52212120436572746966696361746520616c7265616479207265766f5f8201527f6b65642100000000000000000000000000000000000000000000000000000000602082015250565b5f610da5602483610902565b9150610db082610d4b565b604082019050919050565b5f6020820190508181035f830152610dd281610d99565b9050919050565b7f4e487b71000000000000000000000000000000000000000000000000000000005f52602260045260245ffd5b5f6002820490506001821680610e1d57607f821691505b602082108103610e3057610e2f610dd9565b5b50919050565b7f4552524f522121204964206e6f7420666f756e642c20436572746966696361745f8201527f6520646f65736e27742065786973742100000000000000000000000000000000602082015250565b5f610e90603083610902565b9150610e9b82610e36565b604082019050919050565b5f6020820190508181035f830152610ebd81610e84565b9050919050565b7f4552524f52212120436572746966696361746520494420616c726561647920655f8201527f7869737473210000000000000000000000000000000000000000000000000000602082015250565b5f610f1e602683610902565b9150610f2982610ec4565b604082019050919050565b5f6020820190508181035f830152610f4b81610f12565b9050919050565b5f819050815f5260205f209050919050565b5f6020601f8301049050919050565b5f82821b905092915050565b5f60088302610fae7fffffffffffffffffffffffffffffffffffffffffffffffffffffffffffffffff82610f73565b610fb88683610f73565b95508019841693508086168417925050509392505050565b5f819050919050565b5f610ff3610fee610fe984610872565b610fd0565b610872565b9050919050565b5f819050919050565b61100c83610fd9565b61102061101882610ffa565b848454610f7f565b825550505050565b5f90565b611034611028565b61103f818484611003565b505050565b5b81811015611062576110575f8261102c565b600181019050611045565b5050565b601f8211156110a75761107881610f52565b61108184610f64565b81016020851015611090578190505b6110a461109c85610f64565b830182611044565b50505b505050565b5f82821c905092915050565b5f6110c75f19846008026110ac565b1980831691505092915050565b5f6110df83836110b8565b9150826002028217905092915050565b6110f8826108f8565b67ffffffffffffffff81111561111157611110610ae1565b5b61111b8254610e06565b611126828285611066565b5f60209050601f831160018114611157575f8415611145578287015190505b61114f85826110d4565b8655506111b6565b601f19841661116586610f52565b5f5b8281101561118c57848901518255600182019150602085019450602081019050611167565b868310156111a957848901516111a5601f8916826110b8565b8355505b6001600288020188555050505b505050505050565b5f6080820190506111d15f8301876108d0565b81810360208301526111e3818661094a565b905081810360408301526111f7818561094a565b9050818103606083015261120b818461094a565b90509594505050505056fea26469706673582212209f766d2f5aefa9d603d654e92dcf18d3ad72595424ef36c80c54e328a312207564736f6c63430008180033",
  "immutableReferences": {},
  "source": "// SPDX-License-Identifier: MIT\npragma solidity >=0.4.22 <0.9.0;\n\ncontract Certificates {\n    \n  struct Certificate {\n      uint id;\n      string name;\n      string course;\n      string issue_date;\n      bool valid;\n  }\n\n  mapping(uint => Certificate) public certificates;\n  uint[] public certificate_ids;\n\n  event Certificate_Registered(uint id, string name, string course, string issue_date);\n  event Certificate_Revoked(uint id);\n\n  function Register_Certificate(uint _id, string memory _name, string memory _course, string memory _issue_date) public {\n      require(certificates[_id].id == 0, \"ERROR!! Certificate ID already exists!\");\n      \n      certificates[_id] = Certificate({\n          id: _id,\n          name: _name,\n          course: _course,\n          issue_date: _issue_date,\n          valid: true\n      });\n\n      certificate_ids.push(_id);\n\n      emit Certificate_Registered(_id, _name, _course, _issue_date);\n  }\n  \n  function Revoke_Certificate(uint _id) public {\n      Certificate storage cert = certificates[_id];\n      require(cert.id != 0, \"ERROR!! Certificate doesn't exist!\");\n      require(cert.valid, \"ERROR!! Certificate already revoked!\");\n\n      cert.valid = false;\n      emit Certificate_Revoked(_id);\n  }\n\n  function get_Certificate(uint _id) public view returns (uint, string memory, string memory, string memory, bool) {\n    Certificate memory cert = certificates[_id];\n    require(cert.id != 0, \"ERROR!! Id not found, Certificate doesn't exist!\");\n    \n    return (cert.id, cert.name, cert.course, cert.issue_date, cert.valid);\n  }\n\n  function getAll_CertificateIds() public view returns (uint[] memory) {\n      return certificate_ids;\n  }\n}",
  "sourcePath": "C:\\Users\\User\\Desktop\\Blockchain-TecEmergentes\\Blockchain\\contracts\\Certificates.sol",
  "compiler": {
    "name": "solc",
    "version": "0.8.24+commit.e11b9ed9.Emscripten.clang"
  },
  "schemaVersion": "3.4.16",
  "updatedAt": "2024-11-18T00:08:01.084Z",
  "networkType": "ethereum",
  "devdoc": {
    "kind": "dev",
    "methods": {},
    "version": 1
  },
  "userdoc": {
    "kind": "user",
    "methods": {},
    "version": 1
  }
}